:020000040000FA
:100000000C9462000C948A000C948A000C948A0070
:100010000C948A000C948A000C948A000C948A0038
:100020000C948A000C948A000C948A000C948A0028
:100030000C948A000C948A000C948A000C948A0018
:100040000C9448060C948A000C94B8060C94920602
:100050000C948A000C948A000C948A000C948A00F8
:100060000C94EA060C948A0000000000240027008B
:100070002A0000000000250028002B0000000000DE
:1000800023002600290004040404040404040202DA
:100090000202020203030303030301020408102007
:1000A0004080010204081020010204081020000012
:1000B0000008000201000003040700000000000027
:1000C0000000090811241FBECFEFD8E0DEBFCDBF6E
:1000D00011E0A0E0B1E0E2EEFDE102C005900D927A
:1000E000A83DB107D9F723E0A8EDB1E001C01D920A
:1000F000AE35B207E1F710E0C2E6D0E004C02197C8
:10010000FE010E94110CC136D107C9F70E945108A7
:100110000C94EF0E0C940000833081F028F48130B1
:1001200099F08230A9F008958730A9F08830C9F09D
:100130008430B1F4809180008F7D03C08091800075
:100140008F7780938000089584B58F7784BD08955C
:1001500084B58F7DFBCF8091B0008F778093B00006
:1001600008958091B0008F7DF9CFCF93DF93282F32
:1001700030E0F901E255FF4F8491F901E656FF4F57
:10018000D491F901EA57FF4FC491CC23A1F081111A
:100190000E948C00EC2FF0E0EE0FFF1FE458FF4FA1
:1001A000A591B491EC91ED2381E090E009F480E019
:1001B000DF91CF91089580E090E0FACF1F93CF9325
:1001C000DF93282F30E0F901E255FF4F8491F901C8
:1001D000E656FF4FD491F901EA57FF4FC491CC2363
:1001E000A9F0162F81110E948C00EC2FF0E0EE0F89
:1001F000FF1FEE58FF4FA591B4918FB7F894EC9183
:10020000111108C0D095DE23DC938FBFDF91CF9111
:100210001F910895DE2BF8CFCF93DF9390E0FC0180
:10022000E656FF4F24918A579F4FFC018491882303
:10023000D1F090E0880F991FFC01E859FF4FA5917C
:10024000B491FC01EE58FF4FC591D491623071F426
:100250009FB7F8943C91822F809583238C93E881FB
:100260002E2B28839FBFDF91CF9108958FB7F894ED
:10027000EC912E2B2C938FBFF6CF3FB7F894809143
:10028000550290915602A0915702B091580226B59E
:10029000A89B05C02F3F19F00196A11DB11D3FBFBE
:1002A000BA2FA92F982F8827BC01CD01620F711D8D
:1002B000811D911D42E0660F771F881F991F4A9587
:1002C000D1F708958F929F92AF92BF92CF92DF9213
:1002D000EF92FF924B015C010E943D016B017C019A
:1002E0000E943D016C197D098E099F09683E73408B
:1002F00081059105A8F321E0821A9108A108B108AF
:1003000088EEC80E83E0D81EE11CF11C8114910414
:10031000A104B10429F7FF90EF90DF90CF90BF9038
:10032000AF909F908F90089508950895AF92BF92D7
:10033000CF92DF92EF92FF920F931F93CF93DF93B1
:100340006C017B018B01040F151FEB015E01AE18E0
:10035000BF08C017D10759F06991D601ED91FC9102
:100360000190F081E02DC6010995892B79F7C5012F
:10037000DF91CF911F910F91FF90EF90DF90CF9081
:10038000BF90AF900895FC01538D448D252F30E030
:10039000842F90E0821B930B541710F0CF96089592
:1003A00001970895FC01918D828D981761F0A28DBF
:1003B000AE0FBF2FB11D5D968C91928D9F5F9F7385
:1003C000928F90E008958FEF9FEF0895FC01918D3B
:1003D000828D981731F0828DE80FF11D858D90E0A8
:1003E00008958FEF9FEF0895FC01918D228D892F45
:1003F00090E0805C9F4F821B91098F73992708952D
:1004000089EA92E00E94F40121E0892B09F420E0BE
:10041000822F089580E090E0892B29F00E9400024D
:1004200081110C9400000895FC01A48DA80FB92F30
:10043000B11DA35ABF4F2C91848D90E001968F730C
:100440009927848FA689B7892C93A089B1898C912B
:10045000837080648C93938D848D981306C002887A
:10046000F389E02D80818F7D80830895EF92FF9244
:100470000F931F93CF93DF93EC0181E0888F9B8DC7
:100480008C8D98131AC0E889F989808185FF15C081
:100490009FB7F894EE89FF896083E889F9898081A4
:1004A0008370806480839FBF81E090E0DF91CF9173
:1004B0001F910F91FF90EF900895F62E0B8D10E095
:1004C0000F5F1F4F0F731127E02E8C8D8E110CC004
:1004D0000FB607FCFACFE889F989808185FFF5CF4F
:1004E000CE010E941402F1CFEB8DEC0FFD2FF11D18
:1004F000E35AFF4FF0829FB7F8940B8FEA89FB898C
:1005000080818062CFCFCF93DF93EC01888D8823E9
:10051000B9F0AA89BB89E889F9898C9185FD03C066
:10052000808186FD0DC00FB607FCF7CF8C9185FF4B
:10053000F2CF808185FFEDCFCE010E941402E9CF7A
:10054000DF91CF91089508952091F901260F332767
:10055000331F21323105ECF420917F02FC0190E041
:1005600080E0243069F082E00895A091F9012191A2
:10057000AC0147525E4FA40FB52FB11D2C930196CD
:10058000861798F38091F901680F6093F90180E074
:10059000089581E0089510927F0281E080937E02A9
:1005A0001092590261E082E10E94DE0061E083E185
:1005B0000E94DE00E9EBF0E080818E7F8083808105
:1005C0008D7F808388E48093B80085E48093BC00AD
:1005D0000895CF93DF9391E09093D8018823B9F0E9
:1005E000C091B800D091BA008091BC008A7B809302
:1005F000BC0060E082E10E94DE0060E083E10E94D6
:10060000DE000E94CB02D093BA00C093B800DF9105
:10061000CF9108958F929F92AF92BF92CF92DF9227
:10062000EF92FF920F931F93CF93DF93D091A80285
:10063000D13208F0D7C0182FC091A7020E943D0107
:100640006B017C0180917F0281116BC082E08093FD
:100650007F0210937E028FEF80937D0210927C02C6
:10066000D0937B02A7E8B2E0EBE5F2E080E0D8139C
:1006700091C010925A0280915A02CC0FC82BC0939D
:100680005A0280915902813009F088C010925902B3
:100690000E943D016B017C0180915A028093BB0056
:1006A0008091810290918202A0918302B091840294
:1006B000892B8A2B8B2BA1F00E943D010091810296
:1006C0001091820220918302309184026C197D097D
:1006D0008E099F09061717072807390708F442C033
:1006E0008091BC0083FDD8CF85EC8093BC000E9434
:1006F0003D016B017C0180917F02823009F450C082
:1007000080917D028F3F09F46FC080917D0280321D
:1007100009F46CC080917D02803309F469C084E0E3
:1007200026C08091810290918202A0918302B091B3
:100730008402892B8A2B8B2B09F484CF0E943D01E4
:100740008090810290908202A0908302B0908402F7
:100750006C197D098E099F0986169706A806B906A9
:1007600008F070CF809180020E94E90285E010922B
:1007700086021092A80210928502DF91CF911F91FC
:100780000F91FF90EF90DF90CF90BF90AF909F9030
:100790008F9008959D9191938F5F69CF85EEA5CF3E
:1007A0008091810290918202A0918302B091840293
:1007B000892B8A2B8B2B09F49ECF0E943D0100913F
:1007C00081021091820220918302309184026C197F
:1007D0007D098E099F09061717072807390708F0B2
:1007E0008ACFC0CF81E0C3CF80E0C1CF82E0BFCF4E
:1007F00083E0BDCF0895E091210280912002E817A7
:1008000030F4F0E0EE5DFD4F808190E008958FEFD1
:100810009FEF089590912102809120022FEF3FEFEA
:10082000981748F4E92FF0E0EE5DFD4F208130E0AD
:100830009F5F90932102C9010895809120029091B9
:100840002102891B990B0895CF92DF92EF92FF92BC
:100850000F931F93CF93DF937C01CB018A012091EB
:100860008502222389F0EB016B01C40ED51ECC1545
:10087000DD0569F06991D701ED91FC910190F0815E
:10088000E02DC7010995F3CF642F0E94A402C8018F
:10089000DF91CF911F910F91FF90EF90DF90CF905C
:1008A0000895CF93DF931F92CDB7DEB76983209170
:1008B00085022223F9F02091A802203258F021E08D
:1008C00030E0FC013383228390E080E00F90DF91E1
:1008D000CF91089580918602E82FF0E0E957FD4F0F
:1008E000998190838F5F809386028093A80281E034
:1008F00090E0ECCF61E0CE0101960E94A402F7CF18
:10090000FC01248131E0309385022093A7021092EC
:1009100086021092A8028385682B86E493E00E94E9
:10092000510481E00C940A0390E080E008950F9355
:100930001F93CF938C01C62F0E9480046C2F64609C
:10094000C8010E9480046C2F6B7FC8010E94800444
:1009500083EC90E00197F1F7CF911F910F910895EB
:100960000F931F93CF93DF938C01D62FC42F607FFB
:10097000642B0E94970480E1D89FB00111246C2B56
:10098000C801DF91CF911F910F910C949704CF93E1
:10099000DF93CDB7DEB728970FB6F894DEBF0FBE52
:1009A000CDBF98E0E0E2F1E0DE01119601900D92FA
:1009B0009A95E1F790915A03961708F46FEF262F56
:1009C00030E0220F331F41E050E04C0F5D1F240F39
:1009D000351FF9016081680F606840E082E593E0AF
:1009E00028960FB6F894DEBF0FBECDBFDF91CF9132
:1009F0000C94B00440E061E082E593E00E94B00412
:100A00008BE39FE10197F1F7089541E00E94B00464
:100A100081E090E00895FB0101900020E9F7319713
:100A2000AF01461B570BDC01ED91FC910280F38175
:100A3000E02D09948F929F92AF92BF92EF92FF9216
:100A40000F931F93CF93DF93CDB7DEB7A1970FB668
:100A5000F894DEBF0FBECDBF7C01FA01CB0119A215
:100A6000223008F42AE08E010F5D1F4F822E912C58
:100A7000B12CA12CBF01A50194010E94DB0BF9014F
:100A8000CA016A300CF5605DD8016E938D01232B8D
:100A9000242B252B79F790E080E0109721F0BD0101
:100AA000C7010E940B05A1960FB6F894DEBF0FBEDA
:100AB000CDBFDF91CF911F910F91FF90EF90BF902D
:100AC000AF909F908F900895695CDECFCF93DF93B6
:100AD000482F50E070E060E02AE089EA92E00E944E
:100AE0001A05EC0165E671E089EA92E00E940B05C7
:100AF0008C0F9D1FDF91CF9108950C940B050E94E0
:100B0000FA0460E080E00E94C70468E271E082E5D8
:100B100093E00E947D0561E080E00E94C70480911F
:100B20004B028130D1F468E671E082E593E00E94E7
:100B30007D0540914E0250E070E060E02AE082E5E1
:100B400093E00E941A0561E089E00E94C70460E119
:100B500071E082E593E00C947D058230A1F763E7B4
:100B600071E082E593E00E947D0540914D02E3CF64
:100B700080914D021F928F9380914E021F928F930E
:100B80008EE791E09F938F9380E091E09F938F9306
:100B90000E94170C0E94FA0460E080E00E94C704E3
:100BA00068E271E082E593E00E947D0561E080E00B
:100BB0000E94C7048DB79EB708960FB6F8949EBFE3
:100BC0000FBE8DBF60E071E082E593E00C947D057F
:100BD000CF93C62F91E09093850298E69093A70259
:100BE000109286021092A802682F86E493E00E9479
:100BF00051046C2F86E493E00E94510481E00E942E
:100C00000A03C82F882351F068E871E089EA92E06E
:100C10000E947D058C2FCF910C946605CF9108958D
:100C200085ED8093BC008091810290918202A09119
:100C30008302B09184020796A11DB11D23E0B695F1
:100C4000A795979587952A95D1F72091BC0024FD0B
:100C500003C010927F020895409181025091820258
:100C60006091830270918402452B462B472B69F3D8
:100C70000097A105B10541F02AE22A95F1F700C0DD
:100C80000197A109B109E1CF809180020C94E9029A
:100C90001F920F920FB60F9211242F933F938F93B1
:100CA0009F93AF93BF938091510290915202A09174
:100CB0005302B09154023091500223E0230F2D379C
:100CC00058F50196A11DB11D209350028093510249
:100CD00090935202A0935302B09354028091550214
:100CE00090915602A0915702B09158020196A11D11
:100CF000B11D8093550290935602A0935702B09372
:100D00005802BF91AF919F918F913F912F910F907A
:100D10000FBE0F901F90189526E8230F0296A11D75
:100D2000B11DD2CF1F920F920FB60F9211242F93A5
:100D30003F934F935F936F937F938F939F93AF9363
:100D4000BF93EF93FF9389EA92E00E941402FF9110
:100D5000EF91BF91AF919F918F917F916F915F9133
:100D60004F913F912F910F900FBE0F901F901895AC
:100D70001F920F920FB60F9211242F938F939F9370
:100D8000EF93FF93E091B902F091BA028081E09174
:100D9000BF02F091C00282FD1BC090818091C2020F
:100DA0008F5F8F732091C302821741F0E091C202DE
:100DB000F0E0E755FD4F958F8093C202FF91EF91D0
:100DC0009F918F912F910F900FBE0F901F901895AC
:100DD0008081F4CF1F920F920FB60F9211242F93A0
:100DE0003F934F935F936F937F938F939F93AF93B3
:100DF000BF93EF93FF938091B900887F803609F409
:100E00004AC0F0F5883209F4A7C018F5803109F41A
:100E10009BC0B8F4882309F4F9C0883009F494C061
:100E2000FF91EF91BF91AF919F918F917F916F91C2
:100E30005F914F913F912F910F900FBE0F901F9098
:100E40001895883109F488C0803251F780937D026B
:100E500014C0803409F49DC040F48033B9F3883362
:100E6000F9F680937D0285ECB0C0803509F485C029
:100E7000883509F496C0883499F60E941006D0CFC0
:100E8000883909F48CC038F5883729F050F4883651
:100E900011F0803729F683E080937F0210921B02C5
:100EA00057C0883809F47BC0803919F0803809F0C0
:100EB000B7CF80911B02803208F071C0E0911B0215
:100EC00081E08E0F80931B028091BB00F0E0E55023
:100ED000FE4F80833DC0803B39F0E0F4803A09F456
:100EE00079C0883A09F09CCF84E080937F02109209
:100EF000FA011092F901E0911C02F0911D0209958E
:100F00008091F90181110FC081E08093F901109265
:100F1000D90109C0803C09F4A6CF883C09F4A3CFCD
:100F2000883B09F07DCFE091FA0181E08E0F80933C
:100F3000FA01F0E0E752FE4F80818093BB00909170
:100F4000FA018091F90129C080915A028093BB0077
:100F500085EC8093BC0064CF90917C0280917B02F1
:100F6000981758F5E0917C0281E08E0F80937C0207
:100F7000F0E0E55AFD4F8081E9CFE0917C0281E00D
:100F80008E0F80937C028091BB00F0E0E55AFD4F0C
:100F9000808390917C0280917B029817C8F285E84B
:100FA000D8CFE0917C0281E08E0F80937C0280910B
:100FB000BB00F0E0E55AFD4F808380917E028111F5
:100FC0005CCF81E08093590284EA8093BC00109248
:100FD0007F0226CF85EC8093BC0010927F02809127
:100FE0001B02803230F4E0911B02F0E0E550FE4F2E
:100FF000108260911B0270E0E0911E02F0911F02CE
:101000008BEF91E0099510921B020ACF10927D029E
:1010100034CFE9EAF2E01382128288EE93E0A0E096
:10102000B0E084839583A683B78329E331E03183DD
:10103000208325EC30E03587248724EC30E03787A7
:10104000268720EC30E0318B208B21EC30E0338B95
:10105000228B22EC30E0358B248B26EC30E0378B72
:10106000268B118E128E138E148EE6E4F3E013821B
:10107000128284839583A683B7838BE491E0918366
:101080008083E2E5F3E0138212828DE591E09183A3
:10109000808387E2848380E1818782E08287138670
:1010A0000895789484B5826084BD84B5816084BDE0
:1010B00085B5826085BD85B5816085BD80916E00F6
:1010C000816080936E001092810080918100826027
:1010D0008093810080918100816080938100809164
:1010E00080008160809380008091B1008460809353
:1010F000B1008091B00081608093B00080917A004F
:10110000846080937A0080917A00826080937A0074
:1011100080917A00816080937A0080917A00806863
:1011200080937A001092C10061E088E00E940C0177
:1011300061E089E00E940C0161E08AE00E940C01FC
:1011400062E08CE00E940C0162E08DE00E940C01E4
:101150001092210210922002109286021092A80290
:101160000E94CB0284E991E090931D0280931C02BF
:1011700085E991E090931F0280931E02109257031D
:1011800080915C03823018F098E09093570380932D
:101190005A0362E370E080E090E00E946201609197
:1011A0005D0382E593E00E94800468EE73E080E0D6
:1011B00090E00E94620160E382E593E00E94970460
:1011C000CBE4D6E4CE010197F1F760E382E593E04A
:1011D0000E9497042197F1F760E382E593E00E9473
:1011E000970483E592E00197F1F760E282E593E0EE
:1011F0000E94970460915703606240E082E593E0AB
:101200000E94B00484E08093580340E06CE082E5E3
:1012100093E00E94B0040E94FA04C2E0C093590314
:1012200040E066E082E593E00E94B00440E062E0C6
:1012300082E593E00E94B0048BE39FE10197F1F710
:1012400088E080935D0360E082E593E00E94800483
:101250000E94FA04609158036D7F609358036860A0
:1012600040E082E593E00E94B00410928602109262
:10127000A8020E94CB0260E080E00E94C70468E2FE
:1012800071E082E593E00E947D0561E080E00E94CC
:10129000C7046AE971E082E593E00E947D0560ED94
:1012A00077E080E090E00E946201E091B902F09165
:1012B000BA02C083E091B502F091B6021082E091CB
:1012C000B702F091B8028FEC80831092C102E091D6
:1012D000BD02F091BE0286E08083E091BB02F091F6
:1012E000BC02808180618083E091BB02F091BC02EE
:1012F000808188608083E091BB02F091BC02808194
:1013000080688083E091BB02F091BC0280818F7D78
:1013100080837724739496EA292E91E0392E20E178
:10132000422E21E0522E3CE3E32EF12C48E1C42E64
:10133000D12C00E010E08AE0682E7092850228E649
:101340002093A702109286021092A80260E086E421
:1013500093E00E94510481E00E940A030E943D0133
:101360004B015C0180917F02811164C070927F0209
:1013700070927E023FEF30937D0210927C0242E039
:1013800040937B0270925A0280915A02806D809342
:101390005A0280915902813009F01EC110925902FF
:1013A0000E943D014B015C0180915A028093BB0079
:1013B0008091810290918202A0918302B091840277
:1013C000892B8A2B8B2BA1F00E943D012091810259
:1013D0003091820240918302509184026819790908
:1013E0008A099B09261737074807590708F443C09D
:1013F0008091BC0083FDD8CF55EC5093BC000E9477
:101400003D014B015C0180917F02813009F4E8C00D
:1014100080917C02833008F005C180917C02EBE56D
:10142000F2E0A2E2B2E090E0981751F121912D9301
:101430009F5FFACF8091810290918202A0918302F6
:10144000B0918402892B8A2B8B2B09F48BCF0E94BD
:101450003D0120918102309182024091830250919E
:101460008402681979098A099B09261737074807F2
:10147000590708F077CF809180020E94E90280E04E
:10148000109221028093200286E493E00E940A04D5
:10149000B82EE894B7F8B0924C0286E493E00E942C
:1014A0000A04C82FD82FDF77D093420286E493E056
:1014B0000E940A04982F9F73292F22952F708F70F6
:1014C000269D800D112480934E028D2F82958F7062
:1014D000CF70869DC00D1124C0934D021F92BF9204
:1014E0001F92DF931F929F933F922F925F924F9292
:1014F0000E94170C2DB73EB7265F3F4F0FB6F894EA
:101500003EBF0FBE2DBF80914F02811102C00E94CD
:10151000B8058FB7F8948090510290905202A09035
:101520005302B09054028FBF8CE00E94B500EC01D2
:101530008DE00E94B50020914F0221117EC0CD2B7D
:1015400009F072C070924F0270924B028092470273
:1015500090924802A0924902B0924A020E947F05EE
:10156000C0914E02C85061E0C73008F060E088E0EA
:101570000E94DE0080914D0281111CC080914C02BE
:10158000811118C0C730B0F461E08AE00E94DE002B
:1015900061E089E00E94DE0068E873E180E090E0AD
:1015A0000E94620160E08AE00E94DE0060E089E063
:1015B0000E94DE0068EE73E080E090E00E9462012D
:1015C0000115110509F4B9CE0E940002882309F41F
:1015D000B2CE0E940000AFCE85EE8093BC000FCF4C
:1015E0008091810290918202A0918302B091840245
:1015F000892B8A2B8B2B09F406CF0E943D01209169
:1016000081023091820240918302509184026819D4
:1016100079098A099B09261737074807590708F0EF
:10162000F2CE29CF83E0FBCE892B09F099CF7092BF
:101630004F0232E030934B0289CFCD2B09F049C0E5
:101640008091430290914402A0914502B0914602DC
:10165000A5019401281B390B4A0B5B0BDA01C90168
:10166000883C9105A105B10558F180914B0281306C
:10167000E9F480914E0290E00196B6010E94C70BFA
:1016800080934E02662D0E94BB0B8295807F682F4F
:10169000690F82E00E94E80568EB71E089EA92E058
:1016A0000E947D0580914E020E9466058092430251
:1016B00090924402A0924502B09246020E947F0599
:1016C0008092470290924802A0924902B0924A0248
:1016D00047CF892BA9F58091430290914402A091B4
:1016E0004502B0914602A5019401281B390B4A0B13
:1016F0005B0BDA01C901883C9105A105B10500F336
:1017000080914B02823091F680914D0290E00196DB
:10171000B7010E94C70B80934D02662D0E94BB0B40
:101720008295807F682F690F81E00E94E80567EC51
:1017300071E089EA92E00E947D0580914D02B4CF6C
:101740008091470290914802A0914902B0914A02CB
:10175000881A990AAA0ABB0A38EB83163BE093065B
:10176000A104B10408F4FCCE10924F0210924B0277
:101770000E94B805F5CE991B79E004C0991F961711
:1017800008F0961B881F7A95C9F78095089597FBF6
:10179000072E16F4009407D077FD09D00E94FD0BA8
:1017A00007FC05D03EF4909581959F4F0895709564
:1017B00061957F4F0895A1E21A2EAA1BBB1BFD0164
:1017C0000DC0AA1FBB1FEE1FFF1FA217B307E40720
:1017D000F50720F0A21BB30BE40BF50B661F771F78
:1017E000881F991F1A9469F7609570958095909558
:1017F0009B01AC01BD01CF010895AA1BBB1B51E1A8
:1018000007C0AA1FBB1FA617B70710F0A61BB70B70
:10181000881F991F5A95A9F780959095BC01CD0115
:101820000895EE0FFF1F0590F491E02D0994AEE0AE
:10183000B0E0EDE1FCE00C94C60E0D891E8986E057
:101840008C831A8309838FEF9FE79E838D83AE017C
:10185000475E5F4F6F89788DCE0101960E943A0CEA
:101860002F813885020F131FF80110822E96E4E0B5
:101870000C94E20EABE0B0E0E0E4FCE00C94B80EB7
:101880007C013B018A01FC0117821682838181FF62
:10189000C8C1CE0101965C01F7019381F30193FD6C
:1018A000859193FF81913F01882309F453C18532CB
:1018B00039F493FD859193FF81913F01853229F49D
:1018C000B70190E00E942A0EE7CF912C212C312CF9
:1018D000FFE1F31538F08B3211F190F4803209F109
:1018E000833229F137FC3CC020ED280F2A3050F517
:1018F00036FE20C08AE0989E200D1124922E06C04C
:101900008D3291F0803371F7689430F8F30193FDD4
:10191000859193FF81913F018111DACF21C06894B5
:1019200031F8689432F8F2CF689433F8EFCF6894C6
:1019300034F8ECCFEAE02E9E200D1124222E68947C
:1019400035F8E4CF8E3229F436FC04C1689436F8B9
:10195000DDCF8C3619F4689437F8D8CF8836B1F2D9
:10196000982F9F7D95549330E0F08336A1F1833713
:10197000C1F1833509F063C02801F2E04F0E511C1C
:10198000F801C080D180692D70E036FC02C06FEF95
:101990007FEFC6010E94140E4C01689437F8820153
:1019A0000AC00C5F1F4FFFE3F98388248394912CB6
:1019B0006501E89437F833FE2DC0522C8114910450
:1019C00071F5552009F468CFB70180E290E00E94DC
:1019D0002A0E5A94F6CFF801808189830E5F1F4F3B
:1019E000E4CF2801F2E04F0E511CF801C080D180F5
:1019F000692D70E036FC02C06FEF7FEFC6010E94D8
:101A00001F0E4C018201D5CFB70180E290E00E9409
:101A10002A0E2A942814190409F0B0F7CECFF60143
:101A200037FC859137FE81916F01B70190E00E94EC
:101A30002A0E51105A94F1E08F1A9108BFCF8436C4
:101A400019F0893609F077C0F80137FE6BC0608164
:101A50007181828193810C5F1F4FF32DFF763F2EA2
:101A600097FF09C090958095709561957F4F8F4F36
:101A70009F4F689437F82AE030E0A5010E945A0E83
:101A8000C82ECA188C2C432C36FE0CC0E89440F8A3
:101A9000C91440F434FE05C032FC03C0F32DFE7EB1
:101AA0004F2E892C44FE95C0FE01EC0DF11D808166
:101AB000803309F087C0242D297E422E842D887022
:101AC000582E43FC95C040FE8FC09C2C821418F405
:101AD0002C0C922C981844FE91C0B70180E390E042
:101AE0000E942A0E42FE09C088E790E041FE02C033
:101AF00088E590E0B7010E942A0EC91408F48AC054
:101B0000CA94D12C9FEFC91AD90ACA0CDB1CF60162
:101B100082916F01B70190E00E942A0EAC14BD04BF
:101B2000B1F74FCF60817181072E000C880B990BA4
:101B30000E5F1F4F92CFD32CE894D4F82AE030E008
:101B4000853739F1232D297FD22E8F3601F148F4C4
:101B50008835A9F0F701868197812B96E2E10C94F4
:101B6000D40E803749F08837A9F7D4FE02C06894B4
:101B7000D2F820E130E00DC06894D4F8F6CF34FEFE
:101B800003C0822F8660D82E20E132E002C028E018
:101B900030E0F801D7FE0FC06081718182819381AE
:101BA0000C5F1F4FA5010E945A0EC82ECA183D2C6B
:101BB000E89437F867CF6081718190E080E00E5F34
:101BC0001F4FF0CF42FC02C0839478CF839483945C
:101BD00075CF842D867809F471CFF6CFB70180E2F6
:101BE00090E00E942A0E83948214C0F3512C73CF8C
:101BF000522C5818821408F46ECFF8CF842D8678B2
:101C000009F47BCF8BE241FE80E247FC8DE2B70115
:101C100090E071CFB70180E390E00E942A0E9A9481
:101C20006CCF8FEF9FEF99CFFC0105906150704012
:101C30000110D8F7809590958E0F9F1F0895FC0195
:101C40006150704001900110D8F7809590958E0FEB
:101C50009F1F08950F931F93CF93DF93182F092F82
:101C6000EB018B8181FD09C01FEF0FEF812F902FBA
:101C7000DF91CF911F910F91089582FF14C02E81A3
:101C80003F818C819D81281739073CF4E881F981D7
:101C9000CF0101969983888310838E819F8101965D
:101CA0009F838E83E3CFE885F985812F0995892B62
:101CB000A1F3DACFFA01AA27283051F1203181F1BE
:101CC000E8946F936E7F6E5F7F4F8F4F9F4FAF4F44
:101CD000B1E03ED0B4E03CD0670F781F891F9A1F57
:101CE000A11D680F791F8A1F911DA11D6A0F711D0B
:101CF000811D911DA11D20D009F468943F912AE017
:101D0000269F11243019305D3193DEF6CF010895FE
:101D1000462F4770405D4193B3E00FD0C9F7F6CF2F
:101D2000462F4F70405D4A3318F0495D31FD4052F7
:101D3000419302D0A9F7EACFB4E0A695979587958D
:101D400077956795BA95C9F700976105710508956C
:101D50009B01AC010A2E0694579547953795279518
:101D6000BA95C9F7620F731F841F951FA01D0895B0
:101D70002F923F924F925F926F927F928F929F929B
:101D8000AF92BF92CF92DF92EF92FF920F931F9389
:101D9000CF93DF93CDB7DEB7CA1BDB0B0FB6F8943A
:101DA000DEBF0FBECDBF09942A88398848885F847A
:101DB0006E847D848C849B84AA84B984C884DF80EB
:101DC000EE80FD800C811B81AA81B981CE0FD11DCF
:101DD0000FB6F894DEBF0FBECDBFED010895F894A5
:101DE000FFCF30303A30300000000000000000002B
:101DF0000000483030204D3030205330300000009B
:101E0000000000004000140054005363686F6F6CC2
:101E100020416C61726D000000000036029601C323
:101E2000018302F401D201E6010000000051042404
:101E3000049404FA031D040A04FB030000000005D7
:101E40000596019404A3020D0A0053657420486F9F
:101E500075723A2000536574204D696E3A20200057
:101E6000253032643A2530326400493243205772BB
:101E7000697465204572726F723A20005374617202
:101E800074696E672E2E2E004825303258204D255D
:101E90003032582053253032580053657474696EBF
:101EA0006720486F75723A200053657474696E67D5
:0A1EB000204D696E7574653A20003C
:107E0000112484B714BE81FFF0D085E080938100F7
:107E100082E08093C00088E18093C10086E0809377
:107E2000C20080E18093C4008EE0C9D0259A86E02C
:107E300020E33CEF91E0309385002093840096BBD3
:107E4000B09BFECF1D9AA8958150A9F7CC24DD24C4
:107E500088248394B5E0AB2EA1E19A2EF3E0BF2EE7
:107E6000A2D0813461F49FD0082FAFD0023811F036
:107E7000013811F484E001C083E08DD089C08234E0
:107E800011F484E103C0853419F485E0A6D080C0E4
:107E9000853579F488D0E82EFF2485D0082F10E0AE
:107EA000102F00270E291F29000F111F8ED06801E7
:107EB0006FC0863521F484E090D080E0DECF843638
:107EC00009F040C070D06FD0082F6DD080E0C81688
:107ED00080E7D80618F4F601B7BEE895C0E0D1E017
:107EE00062D089930C17E1F7F0E0CF16F0E7DF06D8
:107EF00018F0F601B7BEE89568D007B600FCFDCFD4
:107F0000A601A0E0B1E02C9130E011968C91119780
:107F100090E0982F8827822B932B1296FA010C0160
:107F200087BEE89511244E5F5F4FF1E0A038BF0790
:107F300051F7F601A7BEE89507B600FCFDCF97BE46
:107F4000E89526C08437B1F42ED02DD0F82E2BD052
:107F50003CD0F601EF2C8F010F5F1F4F84911BD097
:107F6000EA94F801C1F70894C11CD11CFA94CF0C13
:107F7000D11C0EC0853739F428D08EE10CD085E9AC
:107F80000AD08FE07ACF813511F488E018D01DD067
:107F900080E101D065CF982F8091C00085FFFCCF94
:107FA0009093C60008958091C00087FFFCCF809118
:107FB000C00084FD01C0A8958091C6000895E0E648
:107FC000F0E098E1908380830895EDDF803219F02E
:107FD00088E0F5DFFFCF84E1DECF1F93182FE3DFCA
:107FE0001150E9F7F2DF1F91089580E0E8DFEE27F6
:047FF000FF270994CA
:027FFE00040479
:00000001FF
